:100000000C945A000C94CC000C9490000C94770043
:100010000C9477000C9477000C9477000C94770084
:100020000C9477000C9477000C9477000C94770074
:100030000C9477000C9477000C9477000C94770064
:100040000C9477000C9477000C9477000C94770054
:100050000C9477000C9477000C9477000C94770044
:100060000C9477000C9477000C9477000C94770034
:100070000C9477000C9477000C9477000C94770024
:100080000C9477000C9477000C9477000C94770014
:100090000C9477000C9477000C9477000C94770004
:1000A0000C9477000C9477000C9477000C947700F4
:1000B0000C94770011241FBECFEFD8E0DEBFCDBF78
:1000C00011E0A0E0B1E0E4E0F6E002C005900D929E
:1000D000A830B107D9F721E0A8E0B1E001C01D9236
:1000E000AD30B207E1F70E949B010C9400030C9421
:1000F00000005998589887EC90E00197F1F700C0FC
:100100000000599A589A90E39A95F1F7589880E32D
:100110008A95F1F7589A599890EC9A95F1F70895C5
:100120001F920F920FB60F9211248F9380910801A6
:10013000813081F4809106018F5F8093060182E017
:100140008093080180910601883039F481E0809322
:10015000060103C081E0809309018F910F900FBECB
:100160000F901F901895529A5A982FEF80E792E0BF
:10017000215080409040E1F700C0000017B840983F
:1001800052985A982FEF81EE94E021508040904091
:10019000E1F700C0000008951F920F920FB60F9272
:1001A00011242F933F934F935F936F937F938F937C
:1001B0009F93AF93BF93EF93FF9380E19BEEA9E0F2
:1001C000B0E08093020190930301A0930401B093E7
:1001D00005010E94B30081E080930901E898FF9136
:1001E000EF91BF91AF919F918F917F916F915F91AF
:1001F0004F913F912F910F900FBE0F901F90189528
:100200001C9B10C0389A309881E090E0A0E0B0E0EC
:100210008093020190930301A0930401B093050120
:10022000E89A089580E19BEEA9E0B0E08093020196
:1002300090930301A0930401B09305010895E0E8B1
:10024000F0E08081806480831092890010928800A1
:100250001092810010928500109284008091060116
:10026000813059F483EF90E0909389008093880067
:10027000E1E8F0E080818C6080838091060182302B
:1002800059F48DE590E09093890080938800E1E82F
:10029000F0E080818C60808380910601833059F486
:1002A0008BE990E09093890080938800E1E8F0E08A
:1002B00080818B60808380910601843059F48FE3C4
:1002C00090E09093890080938800E1E8F0E08081DD
:1002D0008B60808380910601853059F489E190E03C
:1002E0009093890080938800E1E8F0E080818B6042
:1002F000808380910601863059F483E590E09093E5
:10030000890080938800E1E8F0E080818A60808342
:1003100080910601873059F481E290E09093890042
:1003200080938800E1E8F0E080818A60808381E04A
:10033000809308010895F894509A519A58985998C2
:10034000569A8FEE84B980E185B933B124B181E04A
:1003500090E002C0880F991F3A95E2F7822B84B98A
:100360002998579A23982B9A219A84B5826484BD40
:1003700088E187BD85B5816085BD0E94B300539833
:100380005B9A8FE19EE40197F1F700C000004B9962
:1003900003C082E080930801E9E6F0E080818B6091
:1003A0008083E99A78940E9479000F2EF0E1CF2E95
:1003B000FBEEDF2EF9E0EF2EF12CF02D01E0C0EC8A
:1003C000D7E016E01B9B8EC010930C0180910C01AE
:1003D0008F3F09F470C080910901813031F40E948F
:1003E000790010930C01109209018091080182306C
:1003F00011F40E941F0110920B0185B18A7F809336
:100400000B0190910B0180910C01892B85B9109201
:100410000B0110920A0180910C018295880F880FC0
:10042000807C80930B018BB18F7780930A01909130
:100430000A0180910B01892B8BB9589890E99A9504
:10044000F1F7589A80E38A95F1F74A9914C08091A0
:10045000020190910301A0910401B091050101975F
:10046000A109B1098093020190930301A0930401B3
:10047000B093050108C0C0920201D0920301E0923E
:100480000401F09205018091020190910301A09175
:100490000401B0910501892B8A2B8B2B11F40E944A
:1004A000000180910C01815080930C0180910C011E
:1004B0008F3F09F090CF8091000190910101019749
:1004C00090930101809300018091000190910101BE
:1004D000892B09F077CF00930901D0930101C093D4
:1004E000000170CF10920C0180910C01873008F050
:1004F00070C080910901813031F40E94790010921E
:100500000C011092090180910801823011F40E94BF
:100510001F0110920B0185B18A7F80930B0190918E
:100520000B0180910C01892B85B910920B0110925F
:100530000A0180910C018295880F880F807C80933E
:100540000B018BB18F7780930A0190910A01809102
:100550000B01892B8BB9589890E99A95F1F7589A25
:1005600080E38A95F1F74A9914C080910201909135
:100570000301A0910401B09105010197A109B109FE
:100580008093020190930301A0930401B0930501AD
:1005900008C0C0920201D0920301E0920401F092DF
:1005A00005018091020190910301A0910401B09195
:1005B0000501892B8A2B8B2B11F40E94000180915D
:1005C0000C018F5F80930C0180910C01873008F43F
:1005D00090CF8091000190910101019790930101CA
:1005E000809300018091000190910101892B09F015
:1005F000E9CE00930901D0930101C0930001E2CE3E
:04060000F894FFCF9C
:08060400C00710EB0900010022
:00000001FF
